{
  "contractName": "War",
  "abi": [
    {
      "inputs": [
        {
          "internalType": "address",
          "name": "account",
          "type": "address"
        },
        {
          "internalType": "address",
          "name": "minter_",
          "type": "address"
        },
        {
          "internalType": "uint256",
          "name": "mintingAllowedAfter_",
          "type": "uint256"
        }
      ],
      "payable": false,
      "stateMutability": "nonpayable",
      "type": "constructor"
    },
    {
      "anonymous": false,
      "inputs": [
        {
          "indexed": true,
          "internalType": "address",
          "name": "owner",
          "type": "address"
        },
        {
          "indexed": true,
          "internalType": "address",
          "name": "spender",
          "type": "address"
        },
        {
          "indexed": false,
          "internalType": "uint256",
          "name": "amount",
          "type": "uint256"
        }
      ],
      "name": "Approval",
      "type": "event"
    },
    {
      "anonymous": false,
      "inputs": [
        {
          "indexed": true,
          "internalType": "address",
          "name": "delegator",
          "type": "address"
        },
        {
          "indexed": true,
          "internalType": "address",
          "name": "fromDelegate",
          "type": "address"
        },
        {
          "indexed": true,
          "internalType": "address",
          "name": "toDelegate",
          "type": "address"
        }
      ],
      "name": "DelegateChanged",
      "type": "event"
    },
    {
      "anonymous": false,
      "inputs": [
        {
          "indexed": true,
          "internalType": "address",
          "name": "delegate",
          "type": "address"
        },
        {
          "indexed": false,
          "internalType": "uint256",
          "name": "previousBalance",
          "type": "uint256"
        },
        {
          "indexed": false,
          "internalType": "uint256",
          "name": "newBalance",
          "type": "uint256"
        }
      ],
      "name": "DelegateVotesChanged",
      "type": "event"
    },
    {
      "anonymous": false,
      "inputs": [
        {
          "indexed": false,
          "internalType": "address",
          "name": "minter",
          "type": "address"
        },
        {
          "indexed": false,
          "internalType": "address",
          "name": "newMinter",
          "type": "address"
        }
      ],
      "name": "MinterChanged",
      "type": "event"
    },
    {
      "anonymous": false,
      "inputs": [
        {
          "indexed": true,
          "internalType": "address",
          "name": "from",
          "type": "address"
        },
        {
          "indexed": true,
          "internalType": "address",
          "name": "to",
          "type": "address"
        },
        {
          "indexed": false,
          "internalType": "uint256",
          "name": "amount",
          "type": "uint256"
        }
      ],
      "name": "Transfer",
      "type": "event"
    },
    {
      "constant": true,
      "inputs": [],
      "name": "DELEGATION_TYPEHASH",
      "outputs": [
        {
          "internalType": "bytes32",
          "name": "",
          "type": "bytes32"
        }
      ],
      "payable": false,
      "stateMutability": "view",
      "type": "function"
    },
    {
      "constant": true,
      "inputs": [],
      "name": "DOMAIN_TYPEHASH",
      "outputs": [
        {
          "internalType": "bytes32",
          "name": "",
          "type": "bytes32"
        }
      ],
      "payable": false,
      "stateMutability": "view",
      "type": "function"
    },
    {
      "constant": true,
      "inputs": [],
      "name": "PERMIT_TYPEHASH",
      "outputs": [
        {
          "internalType": "bytes32",
          "name": "",
          "type": "bytes32"
        }
      ],
      "payable": false,
      "stateMutability": "view",
      "type": "function"
    },
    {
      "constant": true,
      "inputs": [
        {
          "internalType": "address",
          "name": "",
          "type": "address"
        },
        {
          "internalType": "uint32",
          "name": "",
          "type": "uint32"
        }
      ],
      "name": "checkpoints",
      "outputs": [
        {
          "internalType": "uint32",
          "name": "fromBlock",
          "type": "uint32"
        },
        {
          "internalType": "uint96",
          "name": "votes",
          "type": "uint96"
        }
      ],
      "payable": false,
      "stateMutability": "view",
      "type": "function"
    },
    {
      "constant": true,
      "inputs": [],
      "name": "decimals",
      "outputs": [
        {
          "internalType": "uint8",
          "name": "",
          "type": "uint8"
        }
      ],
      "payable": false,
      "stateMutability": "view",
      "type": "function"
    },
    {
      "constant": true,
      "inputs": [
        {
          "internalType": "address",
          "name": "",
          "type": "address"
        }
      ],
      "name": "delegates",
      "outputs": [
        {
          "internalType": "address",
          "name": "",
          "type": "address"
        }
      ],
      "payable": false,
      "stateMutability": "view",
      "type": "function"
    },
    {
      "constant": true,
      "inputs": [],
      "name": "minimumTimeBetweenMints",
      "outputs": [
        {
          "internalType": "uint32",
          "name": "",
          "type": "uint32"
        }
      ],
      "payable": false,
      "stateMutability": "view",
      "type": "function"
    },
    {
      "constant": true,
      "inputs": [],
      "name": "mintCap",
      "outputs": [
        {
          "internalType": "uint8",
          "name": "",
          "type": "uint8"
        }
      ],
      "payable": false,
      "stateMutability": "view",
      "type": "function"
    },
    {
      "constant": true,
      "inputs": [],
      "name": "minter",
      "outputs": [
        {
          "internalType": "address",
          "name": "",
          "type": "address"
        }
      ],
      "payable": false,
      "stateMutability": "view",
      "type": "function"
    },
    {
      "constant": true,
      "inputs": [],
      "name": "mintingAllowedAfter",
      "outputs": [
        {
          "internalType": "uint256",
          "name": "",
          "type": "uint256"
        }
      ],
      "payable": false,
      "stateMutability": "view",
      "type": "function"
    },
    {
      "constant": true,
      "inputs": [],
      "name": "name",
      "outputs": [
        {
          "internalType": "string",
          "name": "",
          "type": "string"
        }
      ],
      "payable": false,
      "stateMutability": "view",
      "type": "function"
    },
    {
      "constant": true,
      "inputs": [
        {
          "internalType": "address",
          "name": "",
          "type": "address"
        }
      ],
      "name": "nonces",
      "outputs": [
        {
          "internalType": "uint256",
          "name": "",
          "type": "uint256"
        }
      ],
      "payable": false,
      "stateMutability": "view",
      "type": "function"
    },
    {
      "constant": true,
      "inputs": [
        {
          "internalType": "address",
          "name": "",
          "type": "address"
        }
      ],
      "name": "numCheckpoints",
      "outputs": [
        {
          "internalType": "uint32",
          "name": "",
          "type": "uint32"
        }
      ],
      "payable": false,
      "stateMutability": "view",
      "type": "function"
    },
    {
      "constant": true,
      "inputs": [],
      "name": "symbol",
      "outputs": [
        {
          "internalType": "string",
          "name": "",
          "type": "string"
        }
      ],
      "payable": false,
      "stateMutability": "view",
      "type": "function"
    },
    {
      "constant": true,
      "inputs": [],
      "name": "totalSupply",
      "outputs": [
        {
          "internalType": "uint256",
          "name": "",
          "type": "uint256"
        }
      ],
      "payable": false,
      "stateMutability": "view",
      "type": "function"
    },
    {
      "constant": false,
      "inputs": [
        {
          "internalType": "address",
          "name": "minter_",
          "type": "address"
        }
      ],
      "name": "setMinter",
      "outputs": [],
      "payable": false,
      "stateMutability": "nonpayable",
      "type": "function"
    },
    {
      "constant": false,
      "inputs": [
        {
          "internalType": "address",
          "name": "dst",
          "type": "address"
        },
        {
          "internalType": "uint256",
          "name": "rawAmount",
          "type": "uint256"
        }
      ],
      "name": "mint",
      "outputs": [],
      "payable": false,
      "stateMutability": "nonpayable",
      "type": "function"
    },
    {
      "constant": true,
      "inputs": [
        {
          "internalType": "address",
          "name": "account",
          "type": "address"
        },
        {
          "internalType": "address",
          "name": "spender",
          "type": "address"
        }
      ],
      "name": "allowance",
      "outputs": [
        {
          "internalType": "uint256",
          "name": "",
          "type": "uint256"
        }
      ],
      "payable": false,
      "stateMutability": "view",
      "type": "function"
    },
    {
      "constant": false,
      "inputs": [
        {
          "internalType": "address",
          "name": "spender",
          "type": "address"
        },
        {
          "internalType": "uint256",
          "name": "rawAmount",
          "type": "uint256"
        }
      ],
      "name": "approve",
      "outputs": [
        {
          "internalType": "bool",
          "name": "",
          "type": "bool"
        }
      ],
      "payable": false,
      "stateMutability": "nonpayable",
      "type": "function"
    },
    {
      "constant": false,
      "inputs": [
        {
          "internalType": "address",
          "name": "owner",
          "type": "address"
        },
        {
          "internalType": "address",
          "name": "spender",
          "type": "address"
        },
        {
          "internalType": "uint256",
          "name": "rawAmount",
          "type": "uint256"
        },
        {
          "internalType": "uint256",
          "name": "deadline",
          "type": "uint256"
        },
        {
          "internalType": "uint8",
          "name": "v",
          "type": "uint8"
        },
        {
          "internalType": "bytes32",
          "name": "r",
          "type": "bytes32"
        },
        {
          "internalType": "bytes32",
          "name": "s",
          "type": "bytes32"
        }
      ],
      "name": "permit",
      "outputs": [],
      "payable": false,
      "stateMutability": "nonpayable",
      "type": "function"
    },
    {
      "constant": true,
      "inputs": [
        {
          "internalType": "address",
          "name": "account",
          "type": "address"
        }
      ],
      "name": "balanceOf",
      "outputs": [
        {
          "internalType": "uint256",
          "name": "",
          "type": "uint256"
        }
      ],
      "payable": false,
      "stateMutability": "view",
      "type": "function"
    },
    {
      "constant": false,
      "inputs": [
        {
          "internalType": "address",
          "name": "dst",
          "type": "address"
        },
        {
          "internalType": "uint256",
          "name": "rawAmount",
          "type": "uint256"
        }
      ],
      "name": "transfer",
      "outputs": [
        {
          "internalType": "bool",
          "name": "",
          "type": "bool"
        }
      ],
      "payable": false,
      "stateMutability": "nonpayable",
      "type": "function"
    },
    {
      "constant": false,
      "inputs": [
        {
          "internalType": "address",
          "name": "src",
          "type": "address"
        },
        {
          "internalType": "address",
          "name": "dst",
          "type": "address"
        },
        {
          "internalType": "uint256",
          "name": "rawAmount",
          "type": "uint256"
        }
      ],
      "name": "transferFrom",
      "outputs": [
        {
          "internalType": "bool",
          "name": "",
          "type": "bool"
        }
      ],
      "payable": false,
      "stateMutability": "nonpayable",
      "type": "function"
    },
    {
      "constant": false,
      "inputs": [
        {
          "internalType": "address",
          "name": "delegatee",
          "type": "address"
        }
      ],
      "name": "delegate",
      "outputs": [],
      "payable": false,
      "stateMutability": "nonpayable",
      "type": "function"
    },
    {
      "constant": false,
      "inputs": [
        {
          "internalType": "address",
          "name": "delegatee",
          "type": "address"
        },
        {
          "internalType": "uint256",
          "name": "nonce",
          "type": "uint256"
        },
        {
          "internalType": "uint256",
          "name": "expiry",
          "type": "uint256"
        },
        {
          "internalType": "uint8",
          "name": "v",
          "type": "uint8"
        },
        {
          "internalType": "bytes32",
          "name": "r",
          "type": "bytes32"
        },
        {
          "internalType": "bytes32",
          "name": "s",
          "type": "bytes32"
        }
      ],
      "name": "delegateBySig",
      "outputs": [],
      "payable": false,
      "stateMutability": "nonpayable",
      "type": "function"
    },
    {
      "constant": true,
      "inputs": [
        {
          "internalType": "address",
          "name": "account",
          "type": "address"
        }
      ],
      "name": "getCurrentVotes",
      "outputs": [
        {
          "internalType": "uint96",
          "name": "",
          "type": "uint96"
        }
      ],
      "payable": false,
      "stateMutability": "view",
      "type": "function"
    },
    {
      "constant": true,
      "inputs": [
        {
          "internalType": "address",
          "name": "account",
          "type": "address"
        },
        {
          "internalType": "uint256",
          "name": "blockNumber",
          "type": "uint256"
        }
      ],
      "name": "getPriorVotes",
      "outputs": [
        {
          "internalType": "uint96",
          "name": "",
          "type": "uint96"
        }
      ],
      "payable": false,
      "stateMutability": "view",
      "type": "function"
    }
  ],
  "bytecode": "0x60806040526a52b7d2dcc80cd2e40000006000553480156200002057600080fd5b50604051620029b8380380620029b8833981016040819052620000439162000170565b428110156200006f5760405162461bcd60e51b8152600401620000669062000272565b60405180910390fd5b600080546001600160a01b0385168083526004602052604080842080546001600160601b0319166001600160601b0390941693909317909255825491519092917fddf252ad1be2c89b69c2b068fc378daa952ba7f163c4a11628f55a4df523b3ef91620000dd919062000284565b60405180910390a3600180546001600160a01b0319166001600160a01b0384811691909117918290556040517f3b0007eb941cf645526cbb3a4fdaecda9d28ce4843167d9263b536a1f1edc0f6926200013c926000929116906200024c565b60405180910390a160025550620002eb9050565b80516200015d81620002c6565b92915050565b80516200015d81620002e0565b6000806000606084860312156200018657600080fd5b600062000194868662000150565b9350506020620001a78682870162000150565b9250506040620001ba8682870162000163565b9150509250925092565b620001cf81620002b2565b82525050565b620001cf816200029d565b6000620001ef60398362000294565b7f556e693a3a636f6e7374727563746f723a206d696e74696e672063616e206f6e81527f6c7920626567696e206166746572206465706c6f796d656e7400000000000000602082015260400192915050565b620001cf81620002af565b604081016200025c8285620001c4565b6200026b6020830184620001d5565b9392505050565b602080825281016200015d81620001e0565b602081016200015d828462000241565b90815260200190565b60006001600160a01b0382166200015d565b90565b60006200015d8260006200015d826200029d565b620002d1816200029d565b8114620002dd57600080fd5b50565b620002d181620002af565b6126bd80620002fb6000396000f3fe608060405234801561001057600080fd5b50600436106101495760003560e01c806306fdde031461014e578063075461721461016c578063095ea7b31461018157806318160ddd146101a157806320606b70146101b657806323b872dd146101be57806330adf81f146101d157806330b36cef146101d9578063313ce567146101e157806340c10f19146101f6578063587cde1e1461020b5780635c11d62f1461021e5780635c19a95c146102335780636fcfff451461024657806370a082311461025957806376c71ca11461026c578063782d6fe1146102745780637ecebe001461029457806395d89b41146102a7578063a9059cbb146102af578063b4b5ea57146102c2578063c3cda520146102d5578063d505accf146102e8578063dd62ed3e146102fb578063e7a324dc1461030e578063f1127ed814610316578063fca3b5aa14610337575b600080fd5b61015661034a565b60405161016391906121c8565b60405180910390f35b610174610370565b604051610163919061209b565b61019461018f366004611937565b61037f565b60405161016391906120c4565b6101a961042c565b60405161016391906120d2565b6101a9610432565b6101946101cc36600461184e565b610449565b6101a9610580565b6101a961058c565b6101e9610592565b6040516101639190612302565b610209610204366004611937565b610597565b005b6101746102193660046117ee565b6107a0565b6102266107bb565b60405161016391906122d9565b6102096102413660046117ee565b6107c3565b6102266102543660046117ee565b6107d0565b6101a96102673660046117ee565b6107e8565b6101e961080c565b610287610282366004611937565b610811565b604051610163919061231e565b6101a96102a23660046117ee565b610a1f565b610156610a31565b6101946102bd366004611937565b610a50565b6102876102d03660046117ee565b610a8c565b6102096102e3366004611967565b610afc565b6102096102f636600461189b565b610cd6565b6101a9610309366004611814565b610fa0565b6101a9610fd4565b6103296103243660046119ee565b610fe0565b6040516101639291906122e7565b6102096103453660046117ee565b611015565b6040518060400160405280600a81526020016920b932b9902a37b5b2b760b11b81525081565b6001546001600160a01b031681565b60008060001983141561039557506000196103ba565b6103b783604051806060016040528060248152602001612628602491396110a8565b90505b3360008181526003602090815260408083206001600160a01b03891680855292529182902080546001600160601b0319166001600160601b038616179055905190919060008051602061260883398151915290610418908590612310565b60405180910390a360019150505b92915050565b60005481565b60405161043e90612085565b604051809103902081565b6001600160a01b03831660009081526003602090815260408083203380855290835281842054825160608101909352602480845291936001600160601b039091169285926104a19288929190612628908301396110a8565b9050866001600160a01b0316836001600160a01b0316141580156104ce57506001600160601b0382811614155b156105665760006104f883836040518060600160405280603c8152602001612428603c91396110d7565b6001600160a01b038981166000818152600360209081526040808320948a16808452949091529081902080546001600160601b0319166001600160601b0386161790555192935090916000805160206126088339815191529061055c908590612310565b60405180910390a3505b610571878783611116565b600193505050505b9392505050565b60405161043e9061207a565b60025481565b601281565b6001546001600160a01b031633146105ca5760405162461bcd60e51b81526004016105c190612269565b60405180910390fd5b6002544210156105ec5760405162461bcd60e51b81526004016105c190612229565b6001600160a01b0382166106125760405162461bcd60e51b81526004016105c190612219565b610620426301e133806112aa565b600281905550600061064a826040518060600160405280602181526020016125e7602191396110a8565b905061066661065f600054600260ff166112cf565b6064611309565b816001600160601b0316111561068e5760405162461bcd60e51b81526004016105c190612259565b6106c46106a6600054836001600160601b03166112aa565b604051806060016040528060268152602001612464602691396110a8565b6001600160601b0390811660009081556001600160a01b038516815260046020908152604091829020548251606081019093526024808452610716949190911692859290919061240490830139611348565b6001600160a01b03841660008181526004602052604080822080546001600160601b0319166001600160601b03959095169490941790935591519091906000805160206125c78339815191529061076e908590612310565b60405180910390a36001600160a01b0380841660009081526005602052604081205461079b921683611384565b505050565b6005602052600090815260409020546001600160a01b031681565b6301e1338081565b6107cd3382611516565b50565b60076020526000908152604090205463ffffffff1681565b6001600160a01b03166000908152600460205260409020546001600160601b031690565b600281565b60004382106108325760405162461bcd60e51b81526004016105c190612209565b6001600160a01b03831660009081526007602052604090205463ffffffff1680610860576000915050610426565b6001600160a01b038416600090815260066020908152604080832063ffffffff6000198601811685529252909120541683106108dc576001600160a01b03841660009081526006602090815260408083206000199490940163ffffffff1683529290522054600160201b90046001600160601b03169050610426565b6001600160a01b038416600090815260066020908152604080832083805290915290205463ffffffff16831015610917576000915050610426565b600060001982015b8163ffffffff168163ffffffff1611156109da57600282820363ffffffff160481036109496117ab565b506001600160a01b038716600090815260066020908152604080832063ffffffff858116855290835292819020815180830190925254928316808252600160201b9093046001600160601b031691810191909152908714156109b5576020015194506104269350505050565b805163ffffffff168711156109cc578193506109d3565b6001820392505b505061091f565b506001600160a01b038516600090815260066020908152604080832063ffffffff909416835292905220546001600160601b03600160201b9091041691505092915050565b60086020526000908152604090205481565b604051806040016040528060038152602001622ba0a960e91b81525081565b600080610a7583604051806060016040528060258152602001612582602591396110a8565b9050610a82338583611116565b5060019392505050565b6001600160a01b03811660009081526007602052604081205463ffffffff1680610ab7576000610579565b6001600160a01b0383166000908152600660209081526040808320600019850163ffffffff168452909152902054600160201b90046001600160601b03169392505050565b6000604051610b0a90612085565b60408051918290038220828201909152600a82526920b932b9902a37b5b2b760b11b6020909201919091526000805160206125a7833981519152610b4c6115a0565b30604051602001610b609493929190612178565b6040516020818303038152906040528051906020012090506000604051610b8690612090565b604051908190038120610ba1918a908a908a9060200161213a565b60405160208183030381529060405280519060200120905060008282604051602001610bce929190612049565b604051602081830303815290604052805190602001209050600060018288888860405160008152602001604052604051610c0b94939291906121ad565b6020604051602081039080840390855afa158015610c2d573d6000803e3d6000fd5b5050604051601f1901519150506001600160a01b038116610c605760405162461bcd60e51b81526004016105c1906121f9565b6001600160a01b03811660009081526008602052604090208054600181019091558914610c9f5760405162461bcd60e51b81526004016105c190612289565b87421115610cbf5760405162461bcd60e51b81526004016105c1906121d9565b610cc9818b611516565b505050505b505050505050565b6000600019861415610ceb5750600019610d10565b610d0d866040518060600160405280602381526020016124df602391396110a8565b90505b6000604051610d1e90612085565b60408051918290038220828201909152600a82526920b932b9902a37b5b2b760b11b6020909201919091526000805160206125a7833981519152610d606115a0565b30604051602001610d749493929190612178565b6040516020818303038152906040528051906020012090506000604051610d9a9061207a565b604080519182900382206001600160a01b038d16600090815260086020908152929020805460018101909155610ddc9391928e928e928e9290918e91016120e0565b60405160208183030381529060405280519060200120905060008282604051602001610e09929190612049565b604051602081830303815290604052805190602001209050600060018289898960405160008152602001604052604051610e4694939291906121ad565b6020604051602081039080840390855afa158015610e68573d6000803e3d6000fd5b5050604051601f1901519150506001600160a01b038116610e9b5760405162461bcd60e51b81526004016105c1906122b9565b8b6001600160a01b0316816001600160a01b031614610ecc5760405162461bcd60e51b81526004016105c1906122c9565b88421115610eec5760405162461bcd60e51b81526004016105c1906122a9565b84600360008e6001600160a01b03166001600160a01b0316815260200190815260200160002060008d6001600160a01b03166001600160a01b0316815260200190815260200160002060006101000a8154816001600160601b0302191690836001600160601b031602179055508a6001600160a01b03168c6001600160a01b031660008051602061260883398151915287604051610f8a9190612310565b60405180910390a3505050505050505050505050565b6001600160a01b0391821660009081526003602090815260408083209390941682529190915220546001600160601b031690565b60405161043e90612090565b600660209081526000928352604080842090915290825290205463ffffffff811690600160201b90046001600160601b031682565b6001546001600160a01b0316331461103f5760405162461bcd60e51b81526004016105c190612279565b6001546040517f3b0007eb941cf645526cbb3a4fdaecda9d28ce4843167d9263b536a1f1edc0f69161107e916001600160a01b039091169084906120a9565b60405180910390a1600180546001600160a01b0319166001600160a01b0392909216919091179055565b600081600160601b84106110cf5760405162461bcd60e51b81526004016105c191906121c8565b509192915050565b6000836001600160601b0316836001600160601b03161115829061110e5760405162461bcd60e51b81526004016105c191906121c8565b505050900390565b6001600160a01b03831661113c5760405162461bcd60e51b81526004016105c190612299565b6001600160a01b0382166111625760405162461bcd60e51b81526004016105c190612239565b6001600160a01b0383166000908152600460209081526040918290205482516060810190935260358084526111ad936001600160601b0390921692859291906124aa908301396110d7565b6001600160a01b03848116600090815260046020908152604080832080546001600160601b0319166001600160601b0396871617905592861682529082902054825160608101909352602f808452611215949190911692859290919061264c90830139611348565b6001600160a01b038381166000818152600460205260409081902080546001600160601b0319166001600160601b0395909516949094179093559151908516906000805160206125c783398151915290611270908590612310565b60405180910390a36001600160a01b0380841660009081526005602052604080822054858416835291205461079b92918216911683611384565b6000828201838110156105795760405162461bcd60e51b81526004016105c1906121e9565b6000826112de57506000610426565b828202828482816112eb57fe5b04146105795760405162461bcd60e51b81526004016105c190612249565b600061057983836040518060400160405280601a815260200179536166654d6174683a206469766973696f6e206279207a65726f60301b8152506115a4565b6000838301826001600160601b03808716908316101561137b5760405162461bcd60e51b81526004016105c191906121c8565b50949350505050565b816001600160a01b0316836001600160a01b0316141580156113af57506000816001600160601b0316115b1561079b576001600160a01b03831615611467576001600160a01b03831660009081526007602052604081205463ffffffff1690816113ef57600061142e565b6001600160a01b0385166000908152600660209081526040808320600019860163ffffffff168452909152902054600160201b90046001600160601b03165b90506000611455828560405180606001604052806027815260200161255b602791396110d7565b9050611463868484846115db565b5050505b6001600160a01b0382161561079b576001600160a01b03821660009081526007602052604081205463ffffffff1690816114a25760006114e1565b6001600160a01b0384166000908152600660209081526040808320600019860163ffffffff168452909152902054600160201b90046001600160601b03165b90506000611508828560405180606001604052806026815260200161250260269139611348565b9050610cce858484846115db565b6001600160a01b03808316600081815260056020818152604080842080546004845282862054949093528787166001600160a01b031984168117909155905191909516946001600160601b039092169391928592917f3134e8a2e6d97e929a7e54011ea5485d7d196dd5f0ba4d4ef95803e8e3fc257f9190a461159a828483611384565b50505050565b4690565b600081836115c55760405162461bcd60e51b81526004016105c191906121c8565b5060008385816115d157fe5b0495945050505050565b60006115ff4360405180606001604052806033815260200161252860339139611784565b905060008463ffffffff1611801561164857506001600160a01b038516600090815260066020908152604080832063ffffffff6000198901811685529252909120548282169116145b156116a1576001600160a01b0385166000908152600660209081526040808320600019880163ffffffff16845290915290208054600160201b600160801b031916600160201b6001600160601b0385160217905561173a565b60408051808201825263ffffffff80841682526001600160601b0380861660208085019182526001600160a01b038b166000818152600683528781208c871682528352878120965187549451909516600160201b02600160201b600160801b031995871663ffffffff19958616179590951694909417909555938252600790935292909220805460018801909316929091169190911790555b846001600160a01b03167fdec2bacdd2f05b59de34da9b523dff8be42e5e38e818c82fdb0bae774387a724848460405161177592919061232c565b60405180910390a25050505050565b600081600160201b84106110cf5760405162461bcd60e51b81526004016105c191906121c8565b604080518082019091526000808252602082015290565b8035610426816123d4565b8035610426816123e8565b8035610426816123f1565b8035610426816123fa565b60006020828403121561180057600080fd5b600061180c84846117c2565b949350505050565b6000806040838503121561182757600080fd5b600061183385856117c2565b9250506020611844858286016117c2565b9150509250929050565b60008060006060848603121561186357600080fd5b600061186f86866117c2565b9350506020611880868287016117c2565b9250506040611891868287016117cd565b9150509250925092565b600080600080600080600060e0888a0312156118b657600080fd5b60006118c28a8a6117c2565b97505060206118d38a828b016117c2565b96505060406118e48a828b016117cd565b95505060606118f58a828b016117cd565b94505060806119068a828b016117e3565b93505060a06119178a828b016117cd565b92505060c06119288a828b016117cd565b91505092959891949750929550565b6000806040838503121561194a57600080fd5b600061195685856117c2565b9250506020611844858286016117cd565b60008060008060008060c0878903121561198057600080fd5b600061198c89896117c2565b965050602061199d89828a016117cd565b95505060406119ae89828a016117cd565b94505060606119bf89828a016117e3565b93505060806119d089828a016117cd565b92505060a06119e189828a016117cd565b9150509295509295509295565b60008060408385031215611a0157600080fd5b6000611a0d85856117c2565b9250506020611844858286016117d8565b611a2781612359565b82525050565b611a2781612364565b611a2781612369565b611a27611a4b82612369565b612369565b6000611a5b82612347565b611a65818561234b565b9350611a7581856020860161239e565b611a7e816123ca565b9093019392505050565b6000611a9560258361234b565b7f556e693a3a64656c656761746542795369673a207369676e61747572652065788152641c1a5c995960da1b602082015260400192915050565b6000611adc600283612354565b61190160f01b815260020192915050565b6000611afa601b8361234b565b7a536166654d6174683a206164646974696f6e206f766572666c6f7760281b815260200192915050565b6000611b3160258361234b565b7f556e693a3a64656c656761746542795369673a20696e76616c6964207369676e815264617475726560d81b602082015260400192915050565b6000611b7860268361234b565b7f556e693a3a6765745072696f72566f7465733a206e6f742079657420646574658152651c9b5a5b995960d21b602082015260400192915050565b6000611bc0602e8361234b565b7f556e693a3a6d696e743a2063616e6e6f74207472616e7366657220746f20746881526d65207a65726f206164647265737360901b602082015260400192915050565b6000611c10605283612354565b7f5065726d69742861646472657373206f776e65722c616464726573732073706581527f6e6465722c75696e743235362076616c75652c75696e74323536206e6f6e63656020820152712c75696e7432353620646561646c696e652960701b604082015260520192915050565b6000611c8a60228361234b565b7f556e693a3a6d696e743a206d696e74696e67206e6f7420616c6c6f7765642079815261195d60f21b602082015260400192915050565b6000611cce604383612354565b7f454950373132446f6d61696e28737472696e67206e616d652c75696e7432353681527f20636861696e49642c6164647265737320766572696679696e67436f6e74726160208201526263742960e81b604082015260430192915050565b6000611d3960398361234b565b60008051602061248a8339815191528152786e7366657220746f20746865207a65726f206164647265737360381b602082015260400192915050565b6000611d8260218361234b565b7f536166654d6174683a206d756c7469706c69636174696f6e206f766572666c6f8152607760f81b602082015260400192915050565b6000611dc5601c8361234b565b7b0556e693a3a6d696e743a206578636565646564206d696e74206361760241b815260200192915050565b6000611dfd60238361234b565b7f556e693a3a6d696e743a206f6e6c7920746865206d696e7465722063616e206d8152621a5b9d60ea1b602082015260400192915050565b6000611e42603d8361234b565b7f556e693a3a7365744d696e7465723a206f6e6c7920746865206d696e7465722081527f63616e206368616e676520746865206d696e7465722061646472657373000000602082015260400192915050565b6000611ea160218361234b565b7f556e693a3a64656c656761746542795369673a20696e76616c6964206e6f6e638152606560f81b602082015260400192915050565b6000611ee4603b8361234b565b60008051602061248a83398151915281527a6e736665722066726f6d20746865207a65726f206164647265737360281b602082015260400192915050565b6000611f2f601e8361234b565b7f556e693a3a7065726d69743a207369676e617475726520657870697265640000815260200192915050565b6000611f68603a83612354565b7f44656c65676174696f6e28616464726573732064656c6567617465652c75696e81527974323536206e6f6e63652c75696e74323536206578706972792960301b6020820152603a0192915050565b6000611fc4601e8361234b565b7f556e693a3a7065726d69743a20696e76616c6964207369676e61747572650000815260200192915050565b6000611ffd60198361234b565b78155b9a4e8e9c195c9b5a5d0e881d5b985d5d1a1bdc9a5e9959603a1b815260200192915050565b611a2781612378565b611a2781612381565b611a2781612393565b611a2781612387565b600061205482611acf565b91506120608285611a3f565b6020820191506120708284611a3f565b5060200192915050565b600061042682611c03565b600061042682611cc1565b600061042682611f5b565b602081016104268284611a1e565b604081016120b78285611a1e565b6105796020830184611a1e565b602081016104268284611a2d565b602081016104268284611a36565b60c081016120ee8289611a36565b6120fb6020830188611a1e565b6121086040830187611a1e565b6121156060830186611a36565b6121226080830185611a36565b61212f60a0830184611a36565b979650505050505050565b608081016121488287611a36565b6121556020830186611a1e565b6121626040830185611a36565b61216f6060830184611a36565b95945050505050565b608081016121868287611a36565b6121936020830186611a36565b6121a06040830185611a36565b61216f6060830184611a1e565b608081016121bb8287611a36565b612155602083018661202e565b602080825281016105798184611a50565b6020808252810161042681611a88565b6020808252810161042681611aed565b6020808252810161042681611b24565b6020808252810161042681611b6b565b6020808252810161042681611bb3565b6020808252810161042681611c7d565b6020808252810161042681611d2c565b6020808252810161042681611d75565b6020808252810161042681611db8565b6020808252810161042681611df0565b6020808252810161042681611e35565b6020808252810161042681611e94565b6020808252810161042681611ed7565b6020808252810161042681611f22565b6020808252810161042681611fb7565b6020808252810161042681611ff0565b602081016104268284612025565b604081016122f58285612025565b6105796020830184612040565b60208101610426828461202e565b602081016104268284612037565b602081016104268284612040565b6040810161233a8285612037565b6105796020830184612037565b5190565b90815260200190565b919050565b60006104268261236c565b151590565b90565b6001600160a01b031690565b63ffffffff1690565b60ff1690565b6001600160601b031690565b600061042682612387565b60005b838110156123b95781810151838201526020016123a1565b8381111561159a5750506000910152565b601f01601f191690565b6123dd81612359565b81146107cd57600080fd5b6123dd81612369565b6123dd81612378565b6123dd8161238156fe556e693a3a6d696e743a207472616e7366657220616d6f756e74206f766572666c6f7773556e693a3a7472616e7366657246726f6d3a207472616e7366657220616d6f756e742065786365656473207370656e64657220616c6c6f77616e6365556e693a3a6d696e743a20746f74616c537570706c7920657863656564732039362062697473556e693a3a5f7472616e73666572546f6b656e733a2063616e6e6f7420747261556e693a3a5f7472616e73666572546f6b656e733a207472616e7366657220616d6f756e7420657863656564732062616c616e6365556e693a3a7065726d69743a20616d6f756e7420657863656564732039362062697473556e693a3a5f6d6f7665566f7465733a20766f746520616d6f756e74206f766572666c6f7773556e693a3a5f7772697465436865636b706f696e743a20626c6f636b206e756d62657220657863656564732033322062697473556e693a3a5f6d6f7665566f7465733a20766f746520616d6f756e7420756e646572666c6f7773556e693a3a7472616e736665723a20616d6f756e74206578636565647320393620626974734a8a8f209890f3a92f552814946c009b56040a6a738f85fc3e46f152e900f4b2ddf252ad1be2c89b69c2b068fc378daa952ba7f163c4a11628f55a4df523b3ef556e693a3a6d696e743a20616d6f756e74206578636565647320393620626974738c5be1e5ebec7d5bd14f71427d1e84f3dd0314c0f7b2291e5b200ac8c7c3b925556e693a3a617070726f76653a20616d6f756e7420657863656564732039362062697473556e693a3a5f7472616e73666572546f6b656e733a207472616e7366657220616d6f756e74206f766572666c6f7773a365627a7a723158208ede0277ae693e344b0b134291904650098ad493adb93e3e143cbc3e93d1e88d6c6578706572696d656e74616cf564736f6c63430005100040",
  "source": "/**\r\n *Submitted for verification at Etherscan.io on 2020-09-16\r\n*/\r\n\r\n/**\r\n *Submitted for verification at Etherscan.io on 2020-09-15\r\n*/\r\n\r\npragma solidity ^0.5.16;\r\npragma experimental ABIEncoderV2;\r\n\r\n// From https://github.com/OpenZeppelin/openzeppelin-contracts/blob/master/contracts/math/Math.sol\r\n// Subject to the MIT license.\r\n\r\n/**\r\n * @dev Wrappers over Solidity's arithmetic operations with added overflow\r\n * checks.\r\n *\r\n * Arithmetic operations in Solidity wrap on overflow. This can easily result\r\n * in bugs, because programmers usually assume that an overflow raises an\r\n * error, which is the standard behavior in high level programming languages.\r\n * `SafeMath` restores this intuition by reverting the transaction when an\r\n * operation overflows.\r\n *\r\n * Using this library instead of the unchecked operations eliminates an entire\r\n * class of bugs, so it's recommended to use it always.\r\n */\r\nlibrary SafeMath {\r\n    /**\r\n     * @dev Returns the addition of two unsigned integers, reverting on overflow.\r\n     *\r\n     * Counterpart to Solidity's `+` operator.\r\n     *\r\n     * Requirements:\r\n     * - Addition cannot overflow.\r\n     */\r\n    function add(uint256 a, uint256 b) internal pure returns (uint256) {\r\n        uint256 c = a + b;\r\n        require(c >= a, \"SafeMath: addition overflow\");\r\n\r\n        return c;\r\n    }\r\n\r\n    /**\r\n     * @dev Returns the addition of two unsigned integers, reverting with custom message on overflow.\r\n     *\r\n     * Counterpart to Solidity's `+` operator.\r\n     *\r\n     * Requirements:\r\n     * - Addition cannot overflow.\r\n     */\r\n    function add(uint256 a, uint256 b, string memory errorMessage) internal pure returns (uint256) {\r\n        uint256 c = a + b;\r\n        require(c >= a, errorMessage);\r\n\r\n        return c;\r\n    }\r\n\r\n    /**\r\n     * @dev Returns the subtraction of two unsigned integers, reverting on underflow (when the result is negative).\r\n     *\r\n     * Counterpart to Solidity's `-` operator.\r\n     *\r\n     * Requirements:\r\n     * - Subtraction cannot underflow.\r\n     */\r\n    function sub(uint256 a, uint256 b) internal pure returns (uint256) {\r\n        return sub(a, b, \"SafeMath: subtraction underflow\");\r\n    }\r\n\r\n    /**\r\n     * @dev Returns the subtraction of two unsigned integers, reverting with custom message on underflow (when the result is negative).\r\n     *\r\n     * Counterpart to Solidity's `-` operator.\r\n     *\r\n     * Requirements:\r\n     * - Subtraction cannot underflow.\r\n     */\r\n    function sub(uint256 a, uint256 b, string memory errorMessage) internal pure returns (uint256) {\r\n        require(b <= a, errorMessage);\r\n        uint256 c = a - b;\r\n\r\n        return c;\r\n    }\r\n\r\n    /**\r\n     * @dev Returns the multiplication of two unsigned integers, reverting on overflow.\r\n     *\r\n     * Counterpart to Solidity's `*` operator.\r\n     *\r\n     * Requirements:\r\n     * - Multiplication cannot overflow.\r\n     */\r\n    function mul(uint256 a, uint256 b) internal pure returns (uint256) {\r\n        // Gas optimization: this is cheaper than requiring 'a' not being zero, but the\r\n        // benefit is lost if 'b' is also tested.\r\n        // See: https://github.com/OpenZeppelin/openzeppelin-contracts/pull/522\r\n        if (a == 0) {\r\n            return 0;\r\n        }\r\n\r\n        uint256 c = a * b;\r\n        require(c / a == b, \"SafeMath: multiplication overflow\");\r\n\r\n        return c;\r\n    }\r\n\r\n    /**\r\n     * @dev Returns the multiplication of two unsigned integers, reverting on overflow.\r\n     *\r\n     * Counterpart to Solidity's `*` operator.\r\n     *\r\n     * Requirements:\r\n     * - Multiplication cannot overflow.\r\n     */\r\n    function mul(uint256 a, uint256 b, string memory errorMessage) internal pure returns (uint256) {\r\n        // Gas optimization: this is cheaper than requiring 'a' not being zero, but the\r\n        // benefit is lost if 'b' is also tested.\r\n        // See: https://github.com/OpenZeppelin/openzeppelin-contracts/pull/522\r\n        if (a == 0) {\r\n            return 0;\r\n        }\r\n\r\n        uint256 c = a * b;\r\n        require(c / a == b, errorMessage);\r\n\r\n        return c;\r\n    }\r\n\r\n    /**\r\n     * @dev Returns the integer division of two unsigned integers.\r\n     * Reverts on division by zero. The result is rounded towards zero.\r\n     *\r\n     * Counterpart to Solidity's `/` operator. Note: this function uses a\r\n     * `revert` opcode (which leaves remaining gas untouched) while Solidity\r\n     * uses an invalid opcode to revert (consuming all remaining gas).\r\n     *\r\n     * Requirements:\r\n     * - The divisor cannot be zero.\r\n     */\r\n    function div(uint256 a, uint256 b) internal pure returns (uint256) {\r\n        return div(a, b, \"SafeMath: division by zero\");\r\n    }\r\n\r\n    /**\r\n     * @dev Returns the integer division of two unsigned integers.\r\n     * Reverts with custom message on division by zero. The result is rounded towards zero.\r\n     *\r\n     * Counterpart to Solidity's `/` operator. Note: this function uses a\r\n     * `revert` opcode (which leaves remaining gas untouched) while Solidity\r\n     * uses an invalid opcode to revert (consuming all remaining gas).\r\n     *\r\n     * Requirements:\r\n     * - The divisor cannot be zero.\r\n     */\r\n    function div(uint256 a, uint256 b, string memory errorMessage) internal pure returns (uint256) {\r\n        // Solidity only automatically asserts when dividing by 0\r\n        require(b > 0, errorMessage);\r\n        uint256 c = a / b;\r\n        // assert(a == b * c + a % b); // There is no case in which this doesn't hold\r\n\r\n        return c;\r\n    }\r\n\r\n    /**\r\n     * @dev Returns the remainder of dividing two unsigned integers. (unsigned integer modulo),\r\n     * Reverts when dividing by zero.\r\n     *\r\n     * Counterpart to Solidity's `%` operator. This function uses a `revert`\r\n     * opcode (which leaves remaining gas untouched) while Solidity uses an\r\n     * invalid opcode to revert (consuming all remaining gas).\r\n     *\r\n     * Requirements:\r\n     * - The divisor cannot be zero.\r\n     */\r\n    function mod(uint256 a, uint256 b) internal pure returns (uint256) {\r\n        return mod(a, b, \"SafeMath: modulo by zero\");\r\n    }\r\n\r\n    /**\r\n     * @dev Returns the remainder of dividing two unsigned integers. (unsigned integer modulo),\r\n     * Reverts with custom message when dividing by zero.\r\n     *\r\n     * Counterpart to Solidity's `%` operator. This function uses a `revert`\r\n     * opcode (which leaves remaining gas untouched) while Solidity uses an\r\n     * invalid opcode to revert (consuming all remaining gas).\r\n     *\r\n     * Requirements:\r\n     * - The divisor cannot be zero.\r\n     */\r\n    function mod(uint256 a, uint256 b, string memory errorMessage) internal pure returns (uint256) {\r\n        require(b != 0, errorMessage);\r\n        return a % b;\r\n    }\r\n}\r\n\r\ncontract War {\r\n    /// @notice EIP-20 token name for this token\r\n    string public constant name = \"Ares Token\";\r\n\r\n    /// @notice EIP-20 token symbol for this token\r\n    string public constant symbol = \"WAR\";\r\n\r\n    /// @notice EIP-20 token decimals for this token\r\n    uint8 public constant decimals = 18;\r\n\r\n    /// @notice Total number of tokens in circulation\r\n    uint public totalSupply = 100_000_000e18; // 1 billion Uni\r\n\r\n    /// @notice Address which may mint new tokens\r\n    address public minter;\r\n\r\n    /// @notice The timestamp after which minting may occur\r\n    uint public mintingAllowedAfter;\r\n\r\n    /// @notice Minimum time between mints\r\n    uint32 public constant minimumTimeBetweenMints = 1 days * 365;\r\n\r\n    /// @notice Cap on the percentage of totalSupply that can be minted at each mint\r\n    uint8 public constant mintCap = 2;\r\n\r\n    /// @notice Allowance amounts on behalf of others\r\n    mapping (address => mapping (address => uint96)) internal allowances;\r\n\r\n    /// @notice Official record of token balances for each account\r\n    mapping (address => uint96) internal balances;\r\n\r\n    /// @notice A record of each accounts delegate\r\n    mapping (address => address) public delegates;\r\n\r\n    /// @notice A checkpoint for marking number of votes from a given block\r\n    struct Checkpoint {\r\n        uint32 fromBlock;\r\n        uint96 votes;\r\n    }\r\n\r\n    /// @notice A record of votes checkpoints for each account, by index\r\n    mapping (address => mapping (uint32 => Checkpoint)) public checkpoints;\r\n\r\n    /// @notice The number of checkpoints for each account\r\n    mapping (address => uint32) public numCheckpoints;\r\n\r\n    /// @notice The EIP-712 typehash for the contract's domain\r\n    bytes32 public constant DOMAIN_TYPEHASH = keccak256(\"EIP712Domain(string name,uint256 chainId,address verifyingContract)\");\r\n\r\n    /// @notice The EIP-712 typehash for the delegation struct used by the contract\r\n    bytes32 public constant DELEGATION_TYPEHASH = keccak256(\"Delegation(address delegatee,uint256 nonce,uint256 expiry)\");\r\n\r\n    /// @notice The EIP-712 typehash for the permit struct used by the contract\r\n    bytes32 public constant PERMIT_TYPEHASH = keccak256(\"Permit(address owner,address spender,uint256 value,uint256 nonce,uint256 deadline)\");\r\n\r\n    /// @notice A record of states for signing / validating signatures\r\n    mapping (address => uint) public nonces;\r\n\r\n    /// @notice An event thats emitted when the minter address is changed\r\n    event MinterChanged(address minter, address newMinter);\r\n\r\n    /// @notice An event thats emitted when an account changes its delegate\r\n    event DelegateChanged(address indexed delegator, address indexed fromDelegate, address indexed toDelegate);\r\n\r\n    /// @notice An event thats emitted when a delegate account's vote balance changes\r\n    event DelegateVotesChanged(address indexed delegate, uint previousBalance, uint newBalance);\r\n\r\n    /// @notice The standard EIP-20 transfer event\r\n    event Transfer(address indexed from, address indexed to, uint256 amount);\r\n\r\n    /// @notice The standard EIP-20 approval event\r\n    event Approval(address indexed owner, address indexed spender, uint256 amount);\r\n\r\n    /**\r\n     * @notice Construct a new Uni token\r\n     * @param account The initial account to grant all the tokens\r\n     * @param minter_ The account with minting ability\r\n     * @param mintingAllowedAfter_ The timestamp after which minting may occur\r\n     */\r\n    constructor(address account, address minter_, uint mintingAllowedAfter_) public {\r\n        require(mintingAllowedAfter_ >= block.timestamp, \"Uni::constructor: minting can only begin after deployment\");\r\n\r\n        balances[account] = uint96(totalSupply);\r\n        emit Transfer(address(0), account, totalSupply);\r\n        minter = minter_;\r\n        emit MinterChanged(address(0), minter);\r\n        mintingAllowedAfter = mintingAllowedAfter_;\r\n    }\r\n\r\n    /**\r\n     * @notice Change the minter address\r\n     * @param minter_ The address of the new minter\r\n     */\r\n    function setMinter(address minter_) external {\r\n        require(msg.sender == minter, \"Uni::setMinter: only the minter can change the minter address\");\r\n        emit MinterChanged(minter, minter_);\r\n        minter = minter_;\r\n    }\r\n\r\n    /**\r\n     * @notice Mint new tokens\r\n     * @param dst The address of the destination account\r\n     * @param rawAmount The number of tokens to be minted\r\n     */\r\n    function mint(address dst, uint rawAmount) external {\r\n        require(msg.sender == minter, \"Uni::mint: only the minter can mint\");\r\n        require(block.timestamp >= mintingAllowedAfter, \"Uni::mint: minting not allowed yet\");\r\n        require(dst != address(0), \"Uni::mint: cannot transfer to the zero address\");\r\n\r\n        // record the mint\r\n        mintingAllowedAfter = SafeMath.add(block.timestamp, minimumTimeBetweenMints);\r\n\r\n        // mint the amount\r\n        uint96 amount = safe96(rawAmount, \"Uni::mint: amount exceeds 96 bits\");\r\n        require(amount <= SafeMath.div(SafeMath.mul(totalSupply, mintCap), 100), \"Uni::mint: exceeded mint cap\");\r\n        totalSupply = safe96(SafeMath.add(totalSupply, amount), \"Uni::mint: totalSupply exceeds 96 bits\");\r\n\r\n        // transfer the amount to the recipient\r\n        balances[dst] = add96(balances[dst], amount, \"Uni::mint: transfer amount overflows\");\r\n        emit Transfer(address(0), dst, amount);\r\n\r\n        // move delegates\r\n        _moveDelegates(address(0), delegates[dst], amount);\r\n    }\r\n\r\n    /**\r\n     * @notice Get the number of tokens `spender` is approved to spend on behalf of `account`\r\n     * @param account The address of the account holding the funds\r\n     * @param spender The address of the account spending the funds\r\n     * @return The number of tokens approved\r\n     */\r\n    function allowance(address account, address spender) external view returns (uint) {\r\n        return allowances[account][spender];\r\n    }\r\n\r\n    /**\r\n     * @notice Approve `spender` to transfer up to `amount` from `src`\r\n     * @dev This will overwrite the approval amount for `spender`\r\n     *  and is subject to issues noted [here](https://eips.ethereum.org/EIPS/eip-20#approve)\r\n     * @param spender The address of the account which may transfer tokens\r\n     * @param rawAmount The number of tokens that are approved (2^256-1 means infinite)\r\n     * @return Whether or not the approval succeeded\r\n     */\r\n    function approve(address spender, uint rawAmount) external returns (bool) {\r\n        uint96 amount;\r\n        if (rawAmount == uint(-1)) {\r\n            amount = uint96(-1);\r\n        } else {\r\n            amount = safe96(rawAmount, \"Uni::approve: amount exceeds 96 bits\");\r\n        }\r\n\r\n        allowances[msg.sender][spender] = amount;\r\n\r\n        emit Approval(msg.sender, spender, amount);\r\n        return true;\r\n    }\r\n\r\n    /**\r\n     * @notice Triggers an approval from owner to spends\r\n     * @param owner The address to approve from\r\n     * @param spender The address to be approved\r\n     * @param rawAmount The number of tokens that are approved (2^256-1 means infinite)\r\n     * @param deadline The time at which to expire the signature\r\n     * @param v The recovery byte of the signature\r\n     * @param r Half of the ECDSA signature pair\r\n     * @param s Half of the ECDSA signature pair\r\n     */\r\n    function permit(address owner, address spender, uint rawAmount, uint deadline, uint8 v, bytes32 r, bytes32 s) external {\r\n        uint96 amount;\r\n        if (rawAmount == uint(-1)) {\r\n            amount = uint96(-1);\r\n        } else {\r\n            amount = safe96(rawAmount, \"Uni::permit: amount exceeds 96 bits\");\r\n        }\r\n\r\n        bytes32 domainSeparator = keccak256(abi.encode(DOMAIN_TYPEHASH, keccak256(bytes(name)), getChainId(), address(this)));\r\n        bytes32 structHash = keccak256(abi.encode(PERMIT_TYPEHASH, owner, spender, rawAmount, nonces[owner]++, deadline));\r\n        bytes32 digest = keccak256(abi.encodePacked(\"\\x19\\x01\", domainSeparator, structHash));\r\n        address signatory = ecrecover(digest, v, r, s);\r\n        require(signatory != address(0), \"Uni::permit: invalid signature\");\r\n        require(signatory == owner, \"Uni::permit: unauthorized\");\r\n        require(now <= deadline, \"Uni::permit: signature expired\");\r\n\r\n        allowances[owner][spender] = amount;\r\n\r\n        emit Approval(owner, spender, amount);\r\n    }\r\n\r\n    /**\r\n     * @notice Get the number of tokens held by the `account`\r\n     * @param account The address of the account to get the balance of\r\n     * @return The number of tokens held\r\n     */\r\n    function balanceOf(address account) external view returns (uint) {\r\n        return balances[account];\r\n    }\r\n\r\n    /**\r\n     * @notice Transfer `amount` tokens from `msg.sender` to `dst`\r\n     * @param dst The address of the destination account\r\n     * @param rawAmount The number of tokens to transfer\r\n     * @return Whether or not the transfer succeeded\r\n     */\r\n    function transfer(address dst, uint rawAmount) external returns (bool) {\r\n        uint96 amount = safe96(rawAmount, \"Uni::transfer: amount exceeds 96 bits\");\r\n        _transferTokens(msg.sender, dst, amount);\r\n        return true;\r\n    }\r\n\r\n    /**\r\n     * @notice Transfer `amount` tokens from `src` to `dst`\r\n     * @param src The address of the source account\r\n     * @param dst The address of the destination account\r\n     * @param rawAmount The number of tokens to transfer\r\n     * @return Whether or not the transfer succeeded\r\n     */\r\n    function transferFrom(address src, address dst, uint rawAmount) external returns (bool) {\r\n        address spender = msg.sender;\r\n        uint96 spenderAllowance = allowances[src][spender];\r\n        uint96 amount = safe96(rawAmount, \"Uni::approve: amount exceeds 96 bits\");\r\n\r\n        if (spender != src && spenderAllowance != uint96(-1)) {\r\n            uint96 newAllowance = sub96(spenderAllowance, amount, \"Uni::transferFrom: transfer amount exceeds spender allowance\");\r\n            allowances[src][spender] = newAllowance;\r\n\r\n            emit Approval(src, spender, newAllowance);\r\n        }\r\n\r\n        _transferTokens(src, dst, amount);\r\n        return true;\r\n    }\r\n\r\n    /**\r\n     * @notice Delegate votes from `msg.sender` to `delegatee`\r\n     * @param delegatee The address to delegate votes to\r\n     */\r\n    function delegate(address delegatee) public {\r\n        return _delegate(msg.sender, delegatee);\r\n    }\r\n\r\n    /**\r\n     * @notice Delegates votes from signatory to `delegatee`\r\n     * @param delegatee The address to delegate votes to\r\n     * @param nonce The contract state required to match the signature\r\n     * @param expiry The time at which to expire the signature\r\n     * @param v The recovery byte of the signature\r\n     * @param r Half of the ECDSA signature pair\r\n     * @param s Half of the ECDSA signature pair\r\n     */\r\n    function delegateBySig(address delegatee, uint nonce, uint expiry, uint8 v, bytes32 r, bytes32 s) public {\r\n        bytes32 domainSeparator = keccak256(abi.encode(DOMAIN_TYPEHASH, keccak256(bytes(name)), getChainId(), address(this)));\r\n        bytes32 structHash = keccak256(abi.encode(DELEGATION_TYPEHASH, delegatee, nonce, expiry));\r\n        bytes32 digest = keccak256(abi.encodePacked(\"\\x19\\x01\", domainSeparator, structHash));\r\n        address signatory = ecrecover(digest, v, r, s);\r\n        require(signatory != address(0), \"Uni::delegateBySig: invalid signature\");\r\n        require(nonce == nonces[signatory]++, \"Uni::delegateBySig: invalid nonce\");\r\n        require(now <= expiry, \"Uni::delegateBySig: signature expired\");\r\n        return _delegate(signatory, delegatee);\r\n    }\r\n\r\n    /**\r\n     * @notice Gets the current votes balance for `account`\r\n     * @param account The address to get votes balance\r\n     * @return The number of current votes for `account`\r\n     */\r\n    function getCurrentVotes(address account) external view returns (uint96) {\r\n        uint32 nCheckpoints = numCheckpoints[account];\r\n        return nCheckpoints > 0 ? checkpoints[account][nCheckpoints - 1].votes : 0;\r\n    }\r\n\r\n    /**\r\n     * @notice Determine the prior number of votes for an account as of a block number\r\n     * @dev Block number must be a finalized block or else this function will revert to prevent misinformation.\r\n     * @param account The address of the account to check\r\n     * @param blockNumber The block number to get the vote balance at\r\n     * @return The number of votes the account had as of the given block\r\n     */\r\n    function getPriorVotes(address account, uint blockNumber) public view returns (uint96) {\r\n        require(blockNumber < block.number, \"Uni::getPriorVotes: not yet determined\");\r\n\r\n        uint32 nCheckpoints = numCheckpoints[account];\r\n        if (nCheckpoints == 0) {\r\n            return 0;\r\n        }\r\n\r\n        // First check most recent balance\r\n        if (checkpoints[account][nCheckpoints - 1].fromBlock <= blockNumber) {\r\n            return checkpoints[account][nCheckpoints - 1].votes;\r\n        }\r\n\r\n        // Next check implicit zero balance\r\n        if (checkpoints[account][0].fromBlock > blockNumber) {\r\n            return 0;\r\n        }\r\n\r\n        uint32 lower = 0;\r\n        uint32 upper = nCheckpoints - 1;\r\n        while (upper > lower) {\r\n            uint32 center = upper - (upper - lower) / 2; // ceil, avoiding overflow\r\n            Checkpoint memory cp = checkpoints[account][center];\r\n            if (cp.fromBlock == blockNumber) {\r\n                return cp.votes;\r\n            } else if (cp.fromBlock < blockNumber) {\r\n                lower = center;\r\n            } else {\r\n                upper = center - 1;\r\n            }\r\n        }\r\n        return checkpoints[account][lower].votes;\r\n    }\r\n\r\n    function _delegate(address delegator, address delegatee) internal {\r\n        address currentDelegate = delegates[delegator];\r\n        uint96 delegatorBalance = balances[delegator];\r\n        delegates[delegator] = delegatee;\r\n\r\n        emit DelegateChanged(delegator, currentDelegate, delegatee);\r\n\r\n        _moveDelegates(currentDelegate, delegatee, delegatorBalance);\r\n    }\r\n\r\n    function _transferTokens(address src, address dst, uint96 amount) internal {\r\n        require(src != address(0), \"Uni::_transferTokens: cannot transfer from the zero address\");\r\n        require(dst != address(0), \"Uni::_transferTokens: cannot transfer to the zero address\");\r\n\r\n        balances[src] = sub96(balances[src], amount, \"Uni::_transferTokens: transfer amount exceeds balance\");\r\n        balances[dst] = add96(balances[dst], amount, \"Uni::_transferTokens: transfer amount overflows\");\r\n        emit Transfer(src, dst, amount);\r\n\r\n        _moveDelegates(delegates[src], delegates[dst], amount);\r\n    }\r\n\r\n    function _moveDelegates(address srcRep, address dstRep, uint96 amount) internal {\r\n        if (srcRep != dstRep && amount > 0) {\r\n            if (srcRep != address(0)) {\r\n                uint32 srcRepNum = numCheckpoints[srcRep];\r\n                uint96 srcRepOld = srcRepNum > 0 ? checkpoints[srcRep][srcRepNum - 1].votes : 0;\r\n                uint96 srcRepNew = sub96(srcRepOld, amount, \"Uni::_moveVotes: vote amount underflows\");\r\n                _writeCheckpoint(srcRep, srcRepNum, srcRepOld, srcRepNew);\r\n            }\r\n\r\n            if (dstRep != address(0)) {\r\n                uint32 dstRepNum = numCheckpoints[dstRep];\r\n                uint96 dstRepOld = dstRepNum > 0 ? checkpoints[dstRep][dstRepNum - 1].votes : 0;\r\n                uint96 dstRepNew = add96(dstRepOld, amount, \"Uni::_moveVotes: vote amount overflows\");\r\n                _writeCheckpoint(dstRep, dstRepNum, dstRepOld, dstRepNew);\r\n            }\r\n        }\r\n    }\r\n\r\n    function _writeCheckpoint(address delegatee, uint32 nCheckpoints, uint96 oldVotes, uint96 newVotes) internal {\r\n      uint32 blockNumber = safe32(block.number, \"Uni::_writeCheckpoint: block number exceeds 32 bits\");\r\n\r\n      if (nCheckpoints > 0 && checkpoints[delegatee][nCheckpoints - 1].fromBlock == blockNumber) {\r\n          checkpoints[delegatee][nCheckpoints - 1].votes = newVotes;\r\n      } else {\r\n          checkpoints[delegatee][nCheckpoints] = Checkpoint(blockNumber, newVotes);\r\n          numCheckpoints[delegatee] = nCheckpoints + 1;\r\n      }\r\n\r\n      emit DelegateVotesChanged(delegatee, oldVotes, newVotes);\r\n    }\r\n\r\n    function safe32(uint n, string memory errorMessage) internal pure returns (uint32) {\r\n        require(n < 2**32, errorMessage);\r\n        return uint32(n);\r\n    }\r\n\r\n    function safe96(uint n, string memory errorMessage) internal pure returns (uint96) {\r\n        require(n < 2**96, errorMessage);\r\n        return uint96(n);\r\n    }\r\n\r\n    function add96(uint96 a, uint96 b, string memory errorMessage) internal pure returns (uint96) {\r\n        uint96 c = a + b;\r\n        require(c >= a, errorMessage);\r\n        return c;\r\n    }\r\n\r\n    function sub96(uint96 a, uint96 b, string memory errorMessage) internal pure returns (uint96) {\r\n        require(b <= a, errorMessage);\r\n        return a - b;\r\n    }\r\n\r\n    function getChainId() internal pure returns (uint) {\r\n        uint256 chainId;\r\n        assembly { chainId := chainid() }\r\n        return chainId;\r\n    }\r\n}",
  "sourcePath": "D:\\Projects\\pancakeSwapFork\\contracts\\war-contract\\contracts\\War.sol",
  "compiler": {
    "name": "solc",
    "version": "0.5.16+commit.9c3226ce.Emscripten.clang"
  },
  "schemaVersion": "3.4.4",
  "updatedAt": "2022-01-29T09:10:05.077Z",
  "devdoc": {
    "methods": {
      "allowance(address,address)": {
        "params": {
          "account": "The address of the account holding the funds",
          "spender": "The address of the account spending the funds"
        },
        "return": "The number of tokens approved"
      },
      "approve(address,uint256)": {
        "details": "This will overwrite the approval amount for `spender` and is subject to issues noted [here](https://eips.ethereum.org/EIPS/eip-20#approve)",
        "params": {
          "rawAmount": "The number of tokens that are approved (2^256-1 means infinite)",
          "spender": "The address of the account which may transfer tokens"
        },
        "return": "Whether or not the approval succeeded"
      },
      "balanceOf(address)": {
        "params": {
          "account": "The address of the account to get the balance of"
        },
        "return": "The number of tokens held"
      },
      "constructor": {
        "params": {
          "account": "The initial account to grant all the tokens",
          "minter_": "The account with minting ability",
          "mintingAllowedAfter_": "The timestamp after which minting may occur"
        }
      },
      "delegate(address)": {
        "params": {
          "delegatee": "The address to delegate votes to"
        }
      },
      "delegateBySig(address,uint256,uint256,uint8,bytes32,bytes32)": {
        "params": {
          "delegatee": "The address to delegate votes to",
          "expiry": "The time at which to expire the signature",
          "nonce": "The contract state required to match the signature",
          "r": "Half of the ECDSA signature pair",
          "s": "Half of the ECDSA signature pair",
          "v": "The recovery byte of the signature"
        }
      },
      "getCurrentVotes(address)": {
        "params": {
          "account": "The address to get votes balance"
        },
        "return": "The number of current votes for `account`"
      },
      "getPriorVotes(address,uint256)": {
        "details": "Block number must be a finalized block or else this function will revert to prevent misinformation.",
        "params": {
          "account": "The address of the account to check",
          "blockNumber": "The block number to get the vote balance at"
        },
        "return": "The number of votes the account had as of the given block"
      },
      "mint(address,uint256)": {
        "params": {
          "dst": "The address of the destination account",
          "rawAmount": "The number of tokens to be minted"
        }
      },
      "permit(address,address,uint256,uint256,uint8,bytes32,bytes32)": {
        "params": {
          "deadline": "The time at which to expire the signature",
          "owner": "The address to approve from",
          "r": "Half of the ECDSA signature pair",
          "rawAmount": "The number of tokens that are approved (2^256-1 means infinite)",
          "s": "Half of the ECDSA signature pair",
          "spender": "The address to be approved",
          "v": "The recovery byte of the signature"
        }
      },
      "setMinter(address)": {
        "params": {
          "minter_": "The address of the new minter"
        }
      },
      "transfer(address,uint256)": {
        "params": {
          "dst": "The address of the destination account",
          "rawAmount": "The number of tokens to transfer"
        },
        "return": "Whether or not the transfer succeeded"
      },
      "transferFrom(address,address,uint256)": {
        "params": {
          "dst": "The address of the destination account",
          "rawAmount": "The number of tokens to transfer",
          "src": "The address of the source account"
        },
        "return": "Whether or not the transfer succeeded"
      }
    }
  },
  "userdoc": {
    "methods": {
      "allowance(address,address)": {
        "notice": "Get the number of tokens `spender` is approved to spend on behalf of `account`"
      },
      "approve(address,uint256)": {
        "notice": "Approve `spender` to transfer up to `amount` from `src`"
      },
      "balanceOf(address)": {
        "notice": "Get the number of tokens held by the `account`"
      },
      "constructor": "Construct a new Uni token",
      "delegate(address)": {
        "notice": "Delegate votes from `msg.sender` to `delegatee`"
      },
      "delegateBySig(address,uint256,uint256,uint8,bytes32,bytes32)": {
        "notice": "Delegates votes from signatory to `delegatee`"
      },
      "getCurrentVotes(address)": {
        "notice": "Gets the current votes balance for `account`"
      },
      "getPriorVotes(address,uint256)": {
        "notice": "Determine the prior number of votes for an account as of a block number"
      },
      "mint(address,uint256)": {
        "notice": "Mint new tokens"
      },
      "permit(address,address,uint256,uint256,uint8,bytes32,bytes32)": {
        "notice": "Triggers an approval from owner to spends"
      },
      "setMinter(address)": {
        "notice": "Change the minter address"
      },
      "transfer(address,uint256)": {
        "notice": "Transfer `amount` tokens from `msg.sender` to `dst`"
      },
      "transferFrom(address,address,uint256)": {
        "notice": "Transfer `amount` tokens from `src` to `dst`"
      }
    }
  }
}